:100000000A128A110C280134FE00030EF0000A08BF
:10001000F1000A128A15342F0A128A110F280A12C7
:100020008A1103200A128A11BD000A128A11FF24C4
:100030000A128A11FB00B401B501B601B701B8017B
:10004000B901BA01BB01BC01F901FA0183010A122D
:100050008A11F52A83120313AE002A0A031D3128E0
:1000600032283728FF30AE00B401B501B601123096
:10007000F6008030F7000A128A1555260A128A11F6
:10008000D530F600C030F7000A128A1555260A123C
:100090008A112330F600D030F7000A128A1555264F
:1000A0000A128A11C83083120313A80020300A12E2
:1000B0008A1540260A128A11C93083120313A80038
:1000C00020300A128A1540260A128A11CA30831279
:1000D0000313A80020300A128A1540260A128A113A
:1000E000323083120313AD000130AD022D0A031D1F
:1000F0007A287B287428C830A8006430F2000030C9
:10010000F3003508F5003408F4000A128A15712747
:100110000A128A1172080A128A1540260A128A11D6
:10012000C93083120313A8000A30A0000030A100D8
:100130000A30F2000030F3003508F5003408F4000E
:100140000A128A1571270A128A117308831203137F
:10015000A3007208A2000A128A15FA260A128A114E
:10016000831203132008303E0A128A1540260A1211
:100170008A11CA3083120313A8000A30A00000308D
:10018000A1003508A3003408A2000A128A15FA2635
:100190000A128A11831203132008303E0A128A15AC
:1001A00040260A128A112A30831203132E060319DD
:1001B000DA28DB28062923302E060319E028E12857
:1001C00006292E0A0319E528E628062903303602F7
:1001D0000318EB28EC28BC293508F3003408F2009A
:1001E0000A30F4000030F5000A128A159F260A1220
:1001F0008A11831203132E087207B400003003180B
:1002000001307307B5000130B607BC292A302E062D
:10021000031D0B290C291029B401B501B601BC2915
:1002200023302E06031D15291629BC29003035025E
:10023000B53003193402031C1E291F292329B430A9
:10024000B4000030B5000A128A1508260A128A1175
:100250007B30F6008230F7000A128A1555260A1202
:100260008A119330F6009030F7000A128A1555264D
:100270000A128A11E330F6009030F7000A128A154C
:1002800055260A128A113C3083120313B900121545
:10029000AB299A30A8006430F2000030F30039082E
:1002A000AB00AC012B08F4002C08F5000A128A11EF
:1002B0007D270A128A117208303E0A128A154026DA
:1002C0000A128A119B3083120313A8000A30A4007B
:1002D0000030A5000A30F2000030F3003908AB000E
:1002E000AC012B08F4002C08F5000A128A117D27B6
:1002F0000A128A11730883120313A7007208A6005A
:100300000A128A1183240A128A1183120313240801
:10031000303E0A128A1540260A128A119C30831236
:100320000313A8000A30A4000030A5003908AB0070
:10033000AC012B08A6002C08A7000A128A118324FE
:100340000A128A11831203132408303E0A128A15F6
:1003500040260A128A11831203133908031DB1299A
:10036000B229492912110A128A1508260A128A117D
:10037000113083120313BD00080083120313AE0073
:100380002A0A031DC429C529CB29B801B701FF30AA
:10039000AE00BB01BC010130F6008030F7000A124C
:1003A0008A1555260A128A11CE30F600C030F700A1
:1003B0000A128A1555260A128A112330F600D03007
:1003C000F7000A128A1555260A128A112A3083125A
:1003D00003132E060319ED29EE29242A23302E06B5
:1003E0000319F329F429242A2E0A0319F829F929D3
:1003F000242A0130B707033037020318002A012AE4
:100400000F2A0A30F2003C080A128A1519260A122D
:100410008A11831203132E07BC00B801452A053048
:1004200037020318142A152A452A0A30F2003B081D
:100430000A128A1519260A128A11831203132E072B
:10044000BB000130B800452A2A302E06031D292A98
:100450002A2A362A380803192E2A2F2A332ABB01C2
:100460000230B800452ABC01B701452A23302E06C8
:10047000031D3B2A3C2A452A07151215DD30BD0015
:100480000A128A1508260A128A11831203133808E1
:10049000031D4B2A4C2A5F2AC930A80020300A12BB
:1004A0008A1540260A128A11CA3083120313A80043
:1004B00020300A128A1540260A128A11712AC63083
:1004C000A80020300A128A1540260A128A11C73065
:1004D00083120313A80020300A128A1540260A123C
:1004E0008A11323083120313AD000130AD022D0AA0
:1004F000031D7B2A7C2A752AC930A8000A30F20025
:100500000030F3003C08AB00AC012B08F4002C08D1
:10051000F5000A128A117D270A128A117208303EEC
:100520000A128A1540260A128A11CA30831203134E
:10053000A8000A30A4000030A5003C08AB00AC01C4
:100540002B08A6002C08A7000A128A1183240A127D
:100550008A11831203132408303E0A128A1540269A
:100560000A128A11C83083120313A8003A300A1203
:100570008A1540260A128A11C63083120313A80076
:100580000A30F2000030F3003B08AB00AC012B084E
:10059000F4002C08F5000A128A117D270A128A112C
:1005A0007208303E0A128A1540260A128A11C73094
:1005B00083120313A8000A30A4000030A5003B08F2
:1005C000AB00AC012B08A6002C08A7000A128A1168
:1005D00083240A128A11831203132408303E0A125C
:1005E0008A1540260A128A11080083120313B201E9
:1005F0000A128A11E2270A128A1101300A128A119C
:10060000DC240A128A1183120313B30002303D0660
:10061000031D0B2B0C2B702B3303031D102B112BE5
:100620003C2B0A128A1508260A128A1111308312ED
:100630000313BD00B2018730F600C030F7000A1284
:100640008A1555260A128A11333083120313B1001A
:10065000BB30B000DF30AF00AF0B2C2BB00B2C2B1E
:10066000B10B2C2B0A128A1508260A128A11FF30A8
:1006700083120313BA00702B02303306031D412B83
:10068000422B4D2B0A128A1508260A128A11831250
:100690000313B2011130BD00372B03303306031DA5
:1006A000522B532B5E2B0A128A1508260A128A1126
:1006B00083120313B2011330BD00372B043033060D
:1006C000031D632B642B702B0A128A1508260A124D
:1006D0008A11143083120313BD000130B200372B8E
:1006E000DD303D06031D752B762BA02B0430330621
:1006F000031D7B2B7C2B8E2B32080319802B812B27
:10070000FC2B1E30BC073C303C02031C882B892B81
:10071000FC2B3C30BC020130BB07FC2B0530330600
:10072000031D932B942B972BCC30BD00FC2B063054
:100730003306031D9C2B9D2BFC2BBB30BD00FC2BDB
:10074000CC303D06031DA52BA62BFC2B0430330615
:10075000031DAB2BAC2BFC2B07151215DD30BD0098
:10076000FC2B0A128A15B3270A128A11023083124F
:100770000313BD000A128A1508260A128A11192CC1
:100780000A128A157A260A128A11192C3A08AA0026
:1007900033080A128A11BD210A128A11192C0A1271
:1007A0008A11ED250A128A11192C07111211192C20
:1007B000071112110A128A1508260A128A1102302C
:1007C00083120313BD00192C3A08AA0033080A1239
:1007D0008A11BD210A128A11192C3A08AA0033087D
:1007E0000A128A112A200A128A11192C0A128A1551
:1007F000E3250A128A11192C3D08013A0319B12B7D
:10080000033A0319C02B133A0319C62B033A0319F1
:10081000E42B013A0319ED2B073A0319F62BAF3AF3
:100820000319D82B773A0319D52B113A0319CF2B7B
:10083000192C83120313BA01FD2A0A128A110C28FB
:10084000C330F700CD30F600F60B242CF70B242C28
:10085000F20133300A128A15C4260A128A111B309B
:10086000F7009E30F600F60B332CF70B332C00000C
:10087000F20133300A128A15C4260A128A11A630F0
:10088000F600F60B412C0000F20133300A128A15F3
:10089000C4260A128A114C2C4D2C0000F2010230A1
:1008A0000A128A15C4260A128A11A630F600F60B1F
:1008B000572C0000F20128300A128A15C4260A12A9
:1008C0008A11A630F600F60B632C0000F20101300D
:1008D0000A128A15C4260A128A110430F7003D3024
:1008E000F600F60B712CF70B712C762CF2010C3004
:1008F0000A128A15C4260A128A11A630F600F60BCF
:100900007F2C00000800F70183120313A71F892C16
:100910008A2C912CA609A709A60A0319A70A013057
:10092000F700A51F942C952C9A2CA409A509A40ABC
:100930000319A50A2408250403199F2CA02CCD2CEB
:100940000130F600AC2C01300310A40DA50DFF3EC4
:10095000031DA42C0130F607A51FAF2CB02CA32C2F
:1009600025082702031DB62C24082602031CB92CD7
:10097000BA2CC02C2408A6022508031CA703A70232
:1009800001300310A50CA40CFF3E031DC12C013047
:10099000F602031DCC2CCD2CB02C77080319D12CDA
:1009A000D22CD72CA609A709A60A0319A70A27083B
:1009B000A5002608A4000800F4000A128A11D12616
:1009C0000A128A11F5007408031DE72CE82CEA2CA2
:1009D0007508FE2C750A0319EE2CEF2CF62C7B08FB
:1009E0000319F32CF42CF62CFB01E82C750A031DDB
:1009F000FA2CFB2CFD2C0130FB00FF3008000134E9
:100A000005308A000408840A8207003453344534D0
:100A100054342034543449344D344534203428344B
:100A20004D344D343A345334533429340034533430
:100A3000453454342034543445344D345034203407
:100A400028344D344D343A3453345334293400343B
:100A50002A343A3443344C3445344134523420340B
:100A6000203423343A3445344E34543445345234EB
:100A7000003445346E346A346F3479342034593458
:100A80006F347534723420344D34653461346C34D1
:100A9000003434342E3453345434413452345434C6
:100AA0002F3452344534533455344D3445340034A6
:100AB0004D346934633472346F347734613476344E
:100AC000653420344F34763465346E340034333436
:100AD0002E3443346F346E34763465346E3474346B
:100AE00069346F346E34003450346F347734653485
:100AF000723469346E34673420344F344E340034E9
:100B00005034723465342D3448346534613474346F
:100B100069346E346734003450346F34773465345C
:100B2000723420343D342034393430345734003476
:100B3000543469346D3465342034523465346D3442
:100B400020343A340034543449344D34453420345C
:100B50003D342034003435342E345034413455344F
:100B6000533445340034543449344D3445342034FE
:100B700055345034003432342E34473472346934AE
:100B80006C346C34003431342E344D346934633475
:100B900072346F34003434342E345334743461344A
:100BA000723474340034543449344D344534203470
:100BB0002D340034543445344D34503420342D34E5
:100BC000003436342E34533454344F3450340034DB
:100BD0007334653463343A3400349E30F600813027
:100BE000F7000A128A1555260A128A118C308312D0
:100BF0000313A8000A30F2000030F3003C08AA00FA
:100C0000AB012A08F4002B08F5000A128A117D278F
:100C10000A128A117208303E0A128A1540260A12F8
:100C20008A118D3083120313A8000A30A40000300B
:100C3000A5003C08AA00AB012A08A6002B08A700C3
:100C40000A128A1183240A128A11831203132408B8
:100C5000303E0A128A1540260A128A118B308312FE
:100C60000313A8003A300A128A1540260A128A1184
:100C7000893083120313A8000A30F2000030F30019
:100C80003B08AA00AB012A08F4002B08F5000A1261
:100C90008A117D270A128A117208303E0A128A15BB
:100CA00040260A128A118A3083120313A8000A30E0
:100CB000A4000030A5003B08AA00AB012A08A6004A
:100CC0002B08A7000A128A1183240A128A118312A0
:100CD00003132408303E0A128A1540260A128A118C
:100CE0004430F600C130F7000A128A1555260A1260
:100CF0008A11A630F6009130F7000A128A1555269F
:100D00000A128A11DC30F600D130F7000A128A1577
:100D100055260A128A11831203133B08031D912ED4
:100D2000922ED02E3C08031D962E972ED02E0A12FE
:100D30008A1508260A128A11831203131211071149
:100D4000AE30F600C430F7000A128A1555260A1292
:100D50008A113430F6009030F7000A128A155526B1
:100D60000A128A118312031387141A308312031391
:100D7000AC005E30AB006D30AA00AA0BBD2EAB0BF1
:100D8000BD2EAC0BBD2EC42E8312031387100A1286
:100D90008A1508260A128A11023083120313BD0035
:100DA000080083120313881108158814081464308E
:100DB000F2000030F300FF30F2070318F30AFF30AF
:100DC000F307720A031DE82E730A031DE82EE92EAD
:100DD000DB2E831203130618EE2EEF2EF12E0130B8
:100DE0007C2F8618F42EF52EF72E02307C2F061954
:100DF000FA2EFB2EFD2E03307C2F88150811881447
:100E000008146430F2000030F300FF30F2070318DA
:100E1000F30AFF30F307720A031D122F730A031D32
:100E2000122F132F052F831203130618182F192FB3
:100E30001B2F04307C2F86181E2F1F2F212F0530CB
:100E40007C2F0619242F252F272F06307C2F88155D
:100E50000815881008146430F2000030F300FF30E9
:100E6000F2070318F30AFF30F307720A031D3C2F41
:100E7000730A031D3C2F3D2F2F2F831203130618D7
:100E8000422F432F452F07307C2F8618482F492F9C
:100E90004B2F08307C2F06194E2F4F2F512F093022
:100EA0007C2F88150815881408106430F200003073
:100EB000F300FF30F2070318F30AFF30F307720A5A
:100EC000031D662F730A031D662F672F592F831288
:100ED000031306186C2F6D2F6F2F2A307C2F861866
:100EE000722F732F752F00307C2F0619782F792FD2
:100EF0007B2F23307C2FFF30080083120313A101C6
:100F0000F31F832F842F8B2FF209F309F20A0319A1
:100F1000F30A0130A100F51F8E2F8F2F962FF409B1
:100F2000F509F40A0319F50A0130A106A201A3018B
:100F30007208730403199D2F9E2FD32F0130A00038
:100F4000AA2F01300310F20DF30DFF3E031DA22F57
:100F50000130A007F31FAD2FAE2FA12F01300310DA
:100F6000A20DA30DFF3E031DAF2F73087502031DD5
:100F7000BB2F72087402031CBE2FBF2FC62F72082E
:100F8000F4027308031CF503F50222140130031068
:100F9000F30CF20CFF3E031DC72F0130A002031D0E
:100FA000D22FD32FAE2F21080319D72FD82FDD2F03
:100FB000A209A309A20A0319A30A2308F30022081D
:100FC000F20008000A128A15ED250A128A110A1287
:100FD0008A15F8250A128A11831603130711831242
:100FE000031307118316031387108312031387104B
:100FF0000A128A152C260A128A110B178B17080061
:101BC6001E3083120313BC00BB0107151215DD304E
:101BD600BD000800831603138801091189100A1233
:101BE6008A1120240A128A15080083160313060890
:101BF600073886000808F03988008113831203131A
:101C060088150815881408140800F20101300A1214
:101C16008A15C4260A128A150430F7003D30F600EC
:101C2600F60B132EF70B132E182E0800F400F301F3
:101C3600741C1E2E1F2E212E7208F3070310F20DA0
:101C46000310F40C7408031D292E2A2E1B2E73086C
:101C56000800831203131213921212129211121118
:101C660092101210831603138C14831203138C1014
:101C7600FA30831603139200080083120313A90097
:101C8600F20128080A128A15C4260A128A15F201D8
:101C9600F20A8312031329080A128A15C4260A12A5
:101CA6008A150800F20177080A128A15C4260A1254
:101CB6008A156D2EF201F20A760884000A128A113C
:101CC60000250A128A150A128A15C4260A128A15CE
:101CD6000130F607760884000A128A1100250A12D6
:101CE6008A15003A031D782E792E5D2E0800BE3027
:101CF600F6008030F7000A128A1555260A128A1550
:101D0600B630F600C030F7000A128A1555260A12B8
:101D16008A156230F6009030F7000A128A155526A9
:101D26000A128A15C630F600D030F7000A128A1554
:101D360055260A128A150800F601F701721CA42E10
:101D4600A52EAB2E7408F6070318F70A7508F707D1
:101D560001300310F40DF50DFF3E031DAC2E0130CE
:101D66000310F30CF20CFF3E031DB32E720873042E
:101D7600031DBE2EBF2EA12E7708F3007608F200B3
:101D86000800F5007218C82ECC2E8312031309150D
:101D9600CF2E8312031309117508F03988008914B0
:101DA600A630F300F30BD52E00008312031389101F
:101DB60075080F39F30003300310F30DFF3E031DC2
:101DC600DF2E0310730D88008914A630F300F30B81
:101DD600EA2E00008312031389101B30F4009E3094
:101DE600F300F30BF42EF40BF42E0000080083121C
:101DF6000313200821040319012F022F2F2F01306E
:101E0600A4000E2F01300310A00DA10DFF3E031DEF
:101E1600062F0130A407A11F112F122F052F21080D
:101E26002302031D182F20082202031C1B2F1C2F20
:101E3600222F2008A2022108031CA303A3020130BB
:101E46000310A10CA00CFF3E031D232F0130A4029A
:101E5600031D2E2F2F2F122F2308A1002208A000CA
:101E66000800831203138C1C392F3A2F6A2F013076
:101E7600F9070318FA0A0030FA07203079064E30BF
:101E860003197A06031D482F492F692FF901FA0114
:101E96003C0803194F2F502F532F0130BC02692FD6
:101EA6003C08031D572F582F622F3B0803195C2F40
:101EB6005D2F622F0130BB023B30BC00692F390811
:101EC6000319662F672F692F0130B9028C1071082C
:101ED6008A00700E8300FE0E7E0E0900F601F701E1
:101EE600720873040319782F792FAE2F0130F8008A
:101EF600852F01300310F20DF30DFF3E031D7D2FDC
:101F06000130F807F31F882F892F7C2F013003102B
:101F1600F60DF70DFF3E031D8A2F73087502031D8C
:101F2600962F72087402031C992F9A2FA12F7208FC
:101F3600F4027308031CF503F5027614013003104E
:101F4600F30CF20CFF3E031DA22F0130F802031D15
:101F5600AD2FAE2F892F7708F3007608F200080020
:101F660083120313AD012D08803EA800FF300A122C
:101F76008A1540260A128A15013083120313AD070B
:101F860010302D02031CC82FC92FB62F6F30F60054
:101F9600C230F7000A128A1555260A128A155330DE
:101FA600F6009130F7000A128A1555260A128A158C
:101FB60083120313AE012E08D03EA800FF300A128A
:101FC6008A1540260A128A15013083120313AE07BA
:101FD60010302E02031CF02FF12FDE2F7F308312DC
:101FE6000313AC00D430AB003130AA00AA0BF92F92
:0A1FF600AB0BF92FAC0BF92F08001C
:02400E00FB3F76
:00000001FF
